{
  "address": "0xe7f1725E7734CE288F8367e1Bb143E90bb3F0512",
  "abi": [
    {
      "inputs": [
        {
          "internalType": "address",
          "name": "priceFeedAddress",
          "type": "address"
        }
      ],
      "stateMutability": "nonpayable",
      "type": "constructor"
    },
    {
      "inputs": [],
      "name": "FundMe__NotOwner",
      "type": "error"
    },
    {
      "stateMutability": "payable",
      "type": "fallback"
    },
    {
      "inputs": [],
      "name": "MINIMUN_USD",
      "outputs": [
        {
          "internalType": "uint256",
          "name": "",
          "type": "uint256"
        }
      ],
      "stateMutability": "view",
      "type": "function"
    },
    {
      "inputs": [
        {
          "internalType": "address",
          "name": "",
          "type": "address"
        }
      ],
      "name": "addressToValue",
      "outputs": [
        {
          "internalType": "uint256",
          "name": "",
          "type": "uint256"
        }
      ],
      "stateMutability": "view",
      "type": "function"
    },
    {
      "inputs": [],
      "name": "fundme",
      "outputs": [],
      "stateMutability": "payable",
      "type": "function"
    },
    {
      "inputs": [],
      "name": "owner",
      "outputs": [
        {
          "internalType": "address",
          "name": "",
          "type": "address"
        }
      ],
      "stateMutability": "view",
      "type": "function"
    },
    {
      "inputs": [],
      "name": "priceFeed",
      "outputs": [
        {
          "internalType": "contract AggregatorV3Interface",
          "name": "",
          "type": "address"
        }
      ],
      "stateMutability": "view",
      "type": "function"
    },
    {
      "inputs": [
        {
          "internalType": "uint256",
          "name": "",
          "type": "uint256"
        }
      ],
      "name": "senders",
      "outputs": [
        {
          "internalType": "address",
          "name": "",
          "type": "address"
        }
      ],
      "stateMutability": "view",
      "type": "function"
    },
    {
      "inputs": [],
      "name": "withDraw",
      "outputs": [],
      "stateMutability": "nonpayable",
      "type": "function"
    },
    {
      "stateMutability": "payable",
      "type": "receive"
    }
  ],
  "transactionHash": "0x66643740c1b0d732efea21840d72a0b4097ada2a61928c79a761ef20d831241b",
  "args": [
    "0x5FbDB2315678afecb367f032d93F642f64180aa3"
  ],
  "numDeployments": 1,
  "solcInputHash": "a5924ed854c9f51accfc895e28d54156",
  "bytecode": "0x60a060405234801561001057600080fd5b50604051610f57380380610f57833981810160405281019061003291906100c5565b3373ffffffffffffffffffffffffffffffffffffffff1660808173ffffffffffffffffffffffffffffffffffffffff1660601b8152505080600260006101000a81548173ffffffffffffffffffffffffffffffffffffffff021916908373ffffffffffffffffffffffffffffffffffffffff16021790555050610140565b6000815190506100bf81610129565b92915050565b6000602082840312156100db576100da610124565b5b60006100e9848285016100b0565b91505092915050565b60006100fd82610104565b9050919050565b600073ffffffffffffffffffffffffffffffffffffffff82169050919050565b600080fd5b610132816100f2565b811461013d57600080fd5b50565b60805160601c610df2610165600039600081816102c9015261053b0152610df26000f3fe6080604052600436106100745760003560e01c80638da5cb5b1161004e5780638da5cb5b146100fa5780639977c78a14610125578063bff2e09514610162578063d1d9165d1461019f57610083565b80630fdb1c101461008d5780632100f479146100a4578063741bef1a146100cf57610083565b36610083576100816101a9565b005b61008b6101a9565b005b34801561009957600080fd5b506100a26102c7565b005b3480156100b057600080fd5b506100b9610507565b6040516100c69190610996565b60405180910390f35b3480156100db57600080fd5b506100e4610513565b6040516100f1919061093b565b60405180910390f35b34801561010657600080fd5b5061010f610539565b60405161011c9190610920565b60405180910390f35b34801561013157600080fd5b5061014c600480360381019061014791906107cd565b61055d565b6040516101599190610920565b60405180910390f35b34801561016e57600080fd5b50610189600480360381019061018491906107a0565b61059c565b6040516101969190610996565b60405180910390f35b6101a76101a9565b005b670de0b6b3a76400006101de34600260009054906101000a900473ffffffffffffffffffffffffffffffffffffffff166105b4565b1161021e576040517f08c379a000000000000000000000000000000000000000000000000000000000815260040161021590610956565b60405180910390fd5b6000339080600181540180825580915050600190039060005260206000200160009091909190916101000a81548173ffffffffffffffffffffffffffffffffffffffff021916908373ffffffffffffffffffffffffffffffffffffffff16021790555034600160003373ffffffffffffffffffffffffffffffffffffffff1673ffffffffffffffffffffffffffffffffffffffff16815260200190815260200160002081905550565b7f000000000000000000000000000000000000000000000000000000000000000073ffffffffffffffffffffffffffffffffffffffff163373ffffffffffffffffffffffffffffffffffffffff161461034c576040517f579610db00000000000000000000000000000000000000000000000000000000815260040160405180910390fd5b60005b6000805490508110156103f757600080828154811061037157610370610ca8565b5b9060005260206000200160009054906101000a900473ffffffffffffffffffffffffffffffffffffffff1690506000600160008373ffffffffffffffffffffffffffffffffffffffff1673ffffffffffffffffffffffffffffffffffffffff168152602001908152602001600020819055505080806103ef90610c01565b91505061034f565b50600067ffffffffffffffff81111561041357610412610cd7565b5b6040519080825280602002602001820160405280156104415781602001602082028036833780820191505090505b5060009080519060200190610457929190610690565b5060003373ffffffffffffffffffffffffffffffffffffffff164760405161047e9061090b565b60006040518083038185875af1925050503d80600081146104bb576040519150601f19603f3d011682016040523d82523d6000602084013e6104c0565b606091505b5050905080610504576040517f08c379a00000000000000000000000000000000000000000000000000000000081526004016104fb90610976565b60405180910390fd5b50565b670de0b6b3a764000081565b600260009054906101000a900473ffffffffffffffffffffffffffffffffffffffff1681565b7f000000000000000000000000000000000000000000000000000000000000000081565b6000818154811061056d57600080fd5b906000526020600020016000915054906101000a900473ffffffffffffffffffffffffffffffffffffffff1681565b60016020528060005260406000206000915090505481565b6000806105c0836105f0565b90506000670de0b6b3a764000082866105d99190610b15565b6105e391906109cd565b9050809250505092915050565b6000808273ffffffffffffffffffffffffffffffffffffffff1663feaf968c6040518163ffffffff1660e01b815260040160a06040518083038186803b15801561063957600080fd5b505afa15801561064d573d6000803e3d6000fd5b505050506040513d601f19601f8201168201806040525081019061067191906107fa565b5050509150506402540be4008161068891906109fe565b915050919050565b828054828255906000526020600020908101928215610709579160200282015b828111156107085782518260006101000a81548173ffffffffffffffffffffffffffffffffffffffff021916908373ffffffffffffffffffffffffffffffffffffffff160217905550916020019190600101906106b0565b5b509050610716919061071a565b5090565b5b8082111561073357600081600090555060010161071b565b5090565b60008135905061074681610d60565b92915050565b60008151905061075b81610d77565b92915050565b60008135905061077081610d8e565b92915050565b60008151905061078581610d8e565b92915050565b60008151905061079a81610da5565b92915050565b6000602082840312156107b6576107b5610d06565b5b60006107c484828501610737565b91505092915050565b6000602082840312156107e3576107e2610d06565b5b60006107f184828501610761565b91505092915050565b600080600080600060a0868803121561081657610815610d06565b5b60006108248882890161078b565b95505060206108358882890161074c565b945050604061084688828901610776565b935050606061085788828901610776565b92505060806108688882890161078b565b9150509295509295909350565b61087e81610b6f565b82525050565b61088d81610bcb565b82525050565b60006108a06011836109bc565b91506108ab82610d0b565b602082019050919050565b60006108c3600b836109bc565b91506108ce82610d34565b602082019050919050565b60006108e66000836109b1565b91506108f182610d5d565b600082019050919050565b61090581610bab565b82525050565b6000610916826108d9565b9150819050919050565b60006020820190506109356000830184610875565b92915050565b60006020820190506109506000830184610884565b92915050565b6000602082019050818103600083015261096f81610893565b9050919050565b6000602082019050818103600083015261098f816108b6565b9050919050565b60006020820190506109ab60008301846108fc565b92915050565b600081905092915050565b600082825260208201905092915050565b60006109d882610bab565b91506109e383610bab565b9250826109f3576109f2610c79565b5b828204905092915050565b6000610a0982610b81565b9150610a1483610b81565b9250827f7fffffffffffffffffffffffffffffffffffffffffffffffffffffffffffffff0482116000841360008413161615610a5357610a52610c4a565b5b817f80000000000000000000000000000000000000000000000000000000000000000583126000841260008413161615610a9057610a8f610c4a565b5b827f80000000000000000000000000000000000000000000000000000000000000000582126000841360008412161615610acd57610acc610c4a565b5b827f7fffffffffffffffffffffffffffffffffffffffffffffffffffffffffffffff0582126000841260008412161615610b0a57610b09610c4a565b5b828202905092915050565b6000610b2082610bab565b9150610b2b83610bab565b9250817fffffffffffffffffffffffffffffffffffffffffffffffffffffffffffffffff0483118215151615610b6457610b63610c4a565b5b828202905092915050565b6000610b7a82610b8b565b9050919050565b6000819050919050565b600073ffffffffffffffffffffffffffffffffffffffff82169050919050565b6000819050919050565b600069ffffffffffffffffffff82169050919050565b6000610bd682610bdd565b9050919050565b6000610be882610bef565b9050919050565b6000610bfa82610b8b565b9050919050565b6000610c0c82610bab565b91507fffffffffffffffffffffffffffffffffffffffffffffffffffffffffffffffff821415610c3f57610c3e610c4a565b5b600182019050919050565b7f4e487b7100000000000000000000000000000000000000000000000000000000600052601160045260246000fd5b7f4e487b7100000000000000000000000000000000000000000000000000000000600052601260045260246000fd5b7f4e487b7100000000000000000000000000000000000000000000000000000000600052603260045260246000fd5b7f4e487b7100000000000000000000000000000000000000000000000000000000600052604160045260246000fd5b600080fd5b7f646f6e277420656e6f7567682066756e64000000000000000000000000000000600082015250565b7f63616c6c206661696c6564000000000000000000000000000000000000000000600082015250565b50565b610d6981610b6f565b8114610d7457600080fd5b50565b610d8081610b81565b8114610d8b57600080fd5b50565b610d9781610bab565b8114610da257600080fd5b50565b610dae81610bb5565b8114610db957600080fd5b5056fea2646970667358221220381851cc911e5d68622fb63628eda6a88d5c8163d1c9ddae8c0da77fb630703f64736f6c63430008070033",
  "devdoc": {
    "author": "Rakshith kumar s",
    "kind": "dev",
    "methods": {},
    "title": "A contract for the funding",
    "version": 1
  },
  "userdoc": {
    "kind": "user",
    "methods": {},
    "notice": "this contract is to demo the smaple funding contract",
    "version": 1
  },
  "storageLayout": {
    "storage": [
      {
        "astId": 57,
        "contract": "contracts/FundMe.sol:FundMe",
        "label": "senders",
        "offset": 0,
        "slot": "0",
        "type": "t_array(t_address)dyn_storage"
      },
      {
        "astId": 66,
        "contract": "contracts/FundMe.sol:FundMe",
        "label": "addressToValue",
        "offset": 0,
        "slot": "1",
        "type": "t_mapping(t_address,t_uint256)"
      },
      {
        "astId": 71,
        "contract": "contracts/FundMe.sol:FundMe",
        "label": "priceFeed",
        "offset": 0,
        "slot": "2",
        "type": "t_contract(AggregatorV3Interface)45"
      }
    ],
    "types": {
      "t_address": {
        "encoding": "inplace",
        "label": "address",
        "numberOfBytes": "20"
      },
      "t_array(t_address)dyn_storage": {
        "base": "t_address",
        "encoding": "dynamic_array",
        "label": "address[]",
        "numberOfBytes": "32"
      },
      "t_contract(AggregatorV3Interface)45": {
        "encoding": "inplace",
        "label": "contract AggregatorV3Interface",
        "numberOfBytes": "20"
      },
      "t_mapping(t_address,t_uint256)": {
        "encoding": "mapping",
        "key": "t_address",
        "label": "mapping(address => uint256)",
        "numberOfBytes": "32",
        "value": "t_uint256"
      },
      "t_uint256": {
        "encoding": "inplace",
        "label": "uint256",
        "numberOfBytes": "32"
      }
    }
  }
}